{
  "abi": [
    {
      "type": "constructor",
      "inputs": [],
      "stateMutability": "nonpayable"
    },
    {
      "type": "function",
      "name": "addCandidate",
      "inputs": [
        {
          "name": "_name",
          "type": "string",
          "internalType": "string"
        }
      ],
      "outputs": [],
      "stateMutability": "nonpayable"
    },
    {
      "type": "function",
      "name": "allCandidatesadded",
      "inputs": [],
      "outputs": [
        {
          "name": "",
          "type": "bool",
          "internalType": "bool"
        }
      ],
      "stateMutability": "view"
    },
    {
      "type": "function",
      "name": "balletPaper",
      "inputs": [
        {
          "name": "_serialno",
          "type": "bytes32",
          "internalType": "bytes32"
        },
        {
          "name": "_cnic",
          "type": "uint256",
          "internalType": "uint256"
        },
        {
          "name": "_i",
          "type": "uint256",
          "internalType": "uint256"
        }
      ],
      "outputs": [],
      "stateMutability": "nonpayable"
    },
    {
      "type": "function",
      "name": "candidateCount",
      "inputs": [],
      "outputs": [
        {
          "name": "",
          "type": "uint8",
          "internalType": "uint8"
        }
      ],
      "stateMutability": "view"
    },
    {
      "type": "function",
      "name": "cnicVotes",
      "inputs": [
        {
          "name": "",
          "type": "uint256",
          "internalType": "uint256"
        }
      ],
      "outputs": [
        {
          "name": "",
          "type": "bool",
          "internalType": "bool"
        }
      ],
      "stateMutability": "view"
    },
    {
      "type": "function",
      "name": "getCandidate",
      "inputs": [
        {
          "name": "_index",
          "type": "uint256",
          "internalType": "uint256"
        }
      ],
      "outputs": [
        {
          "name": "",
          "type": "tuple",
          "internalType": "struct HandleVote.CandidateDetail",
          "components": [
            {
              "name": "name",
              "type": "string",
              "internalType": "string"
            },
            {
              "name": "votesCount",
              "type": "uint256",
              "internalType": "uint256"
            }
          ]
        }
      ],
      "stateMutability": "view"
    },
    {
      "type": "function",
      "name": "getResult",
      "inputs": [],
      "outputs": [
        {
          "name": "",
          "type": "tuple[]",
          "internalType": "struct HandleVote.VoteResult[]",
          "components": [
            {
              "name": "serialNo",
              "type": "bytes32",
              "internalType": "bytes32"
            },
            {
              "name": "candidateName",
              "type": "string",
              "internalType": "string"
            }
          ]
        }
      ],
      "stateMutability": "view"
    },
    {
      "type": "function",
      "name": "getVoteRecord",
      "inputs": [
        {
          "name": "_serialno",
          "type": "bytes32",
          "internalType": "bytes32"
        }
      ],
      "outputs": [
        {
          "name": "",
          "type": "tuple",
          "internalType": "struct HandleVote.CandidateDetail",
          "components": [
            {
              "name": "name",
              "type": "string",
              "internalType": "string"
            },
            {
              "name": "votesCount",
              "type": "uint256",
              "internalType": "uint256"
            }
          ]
        }
      ],
      "stateMutability": "view"
    },
    {
      "type": "function",
      "name": "getVotingEndTime",
      "inputs": [],
      "outputs": [
        {
          "name": "",
          "type": "uint256",
          "internalType": "uint256"
        }
      ],
      "stateMutability": "view"
    },
    {
      "type": "function",
      "name": "owner",
      "inputs": [],
      "outputs": [
        {
          "name": "",
          "type": "address",
          "internalType": "address"
        }
      ],
      "stateMutability": "view"
    },
    {
      "type": "function",
      "name": "serialNumbers",
      "inputs": [
        {
          "name": "",
          "type": "uint256",
          "internalType": "uint256"
        }
      ],
      "outputs": [
        {
          "name": "",
          "type": "bytes32",
          "internalType": "bytes32"
        }
      ],
      "stateMutability": "view"
    },
    {
      "type": "function",
      "name": "setAllCandidatesAdded",
      "inputs": [],
      "outputs": [],
      "stateMutability": "nonpayable"
    },
    {
      "type": "function",
      "name": "setVotingEndTime",
      "inputs": [],
      "outputs": [],
      "stateMutability": "nonpayable"
    },
    {
      "type": "function",
      "name": "voteRecords",
      "inputs": [
        {
          "name": "",
          "type": "bytes32",
          "internalType": "bytes32"
        }
      ],
      "outputs": [
        {
          "name": "name",
          "type": "string",
          "internalType": "string"
        },
        {
          "name": "votesCount",
          "type": "uint256",
          "internalType": "uint256"
        }
      ],
      "stateMutability": "view"
    },
    {
      "type": "function",
      "name": "votesCount",
      "inputs": [
        {
          "name": "",
          "type": "bytes32",
          "internalType": "bytes32"
        }
      ],
      "outputs": [
        {
          "name": "",
          "type": "bool",
          "internalType": "bool"
        }
      ],
      "stateMutability": "view"
    },
    {
      "type": "function",
      "name": "votingEndTime",
      "inputs": [],
      "outputs": [
        {
          "name": "",
          "type": "uint256",
          "internalType": "uint256"
        }
      ],
      "stateMutability": "view"
    }
  ],
  "bytecode": {
    "object": "0x60806040526006805460ff60a81b19169055348015601c57600080fd5b50600680546001600160a01b03191633179055610f2b8061003e6000396000f3fe608060405234801561001057600080fd5b50600436106101005760003560e01c80639162ba7511610097578063aae46bab11610066578063aae46bab14610250578063b1bf87b014610273578063d242363b1461027b578063de2927891461029357600080fd5b80639162ba75146101fb578063930ab1191461020f578063a9a981a314610217578063a9bedae41461023d57600080fd5b80634ea6c7fc116100d35780634ea6c7fc1461016957806379916eb41461019c57806381fbd329146101bd5780638da5cb5b146101d057600080fd5b80631ea736e01461010557806335b8e82014610121578063462e91ec146101415780634c10114914610156575b600080fd5b61010e60075481565b6040519081526020015b60405180910390f35b61013461012f366004610a2e565b6102a8565b6040516101189190610a8d565b61015461014f366004610ad5565b6103d7565b005b610154610164366004610b8e565b6104a8565b61018c610177366004610a2e565b60006020819052908152604090205460ff1681565b6040519015158152602001610118565b6101af6101aa366004610a2e565b6106f6565b604051610118929190610bba565b61010e6101cb366004610a2e565b61079a565b6006546101e3906001600160a01b031681565b6040516001600160a01b039091168152602001610118565b60065461018c90600160a81b900460ff1681565b6101546107bb565b60065461022b90600160a01b900460ff1681565b60405160ff9091168152602001610118565b61013461024b366004610a2e565b61081e565b61018c61025e366004610a2e565b60026020526000908152604090205460ff1681565b60075461010e565b6101546006805460ff60a81b1916600160a81b179055565b61029b6108b8565b6040516101189190610bdc565b604080518082019091526060815260006020820152600654600160a01b900460ff16821061031d5760405162461bcd60e51b815260206004820152601860248201527f43616e64696461746520646f6573206e6f74206578697374000000000000000060448201526064015b60405180910390fd5b60008281526001602052604090819020815180830190925280548290829061034490610c58565b80601f016020809104026020016040519081016040528092919081815260200182805461037090610c58565b80156103bd5780601f10610392576101008083540402835291602001916103bd565b820191906000526020600020905b8154815290600101906020018083116103a057829003601f168201915b505050505081526020016001820154815250509050919050565b6006546001600160a01b031633146104295760405162461bcd60e51b8152602060048201526015602482015274596f752068617665206e6f20617574686f7269747960581b6044820152606401610314565b60408051808201825282815260006020808301829052600654600160a01b900460ff1682526001905291909120815181906104649082610ce1565b506020919091015160019091015560068054600160a01b900460ff1690601461048c83610db9565b91906101000a81548160ff021916908360ff1602179055505050565b3360009081526004602052604090205460ff16156105085760405162461bcd60e51b815260206004820152601760248201527f596f75206861766520616c726561647920766f7465642e0000000000000000006044820152606401610314565b60008381526002602052604090205460ff16156105675760405162461bcd60e51b815260206004820152601a60248201527f53657269616c206e756d62657220616c726561647920757365640000000000006044820152606401610314565b6000818152600160205260408120805461058090610c58565b9050116105cf5760405162461bcd60e51b815260206004820152601760248201527f496e76616c69642063616e64696461746520696e6465780000000000000000006044820152606401610314565b60008281526020819052604090205460ff161561062e5760405162461bcd60e51b815260206004820152601f60248201527f434e494320697320616c72656164792070726573656e742c20736f7272792e006044820152606401610314565b3360009081526004602090815260408083208054600160ff1991821681179092558685528484528285208054821683179055878552600284528285208054909116821790558484529182905282200180549161068983610dd8565b909155505060008181526001602090815260408083208684526003909252909120806106b58382610df1565b50600191820154908201556005805491820181556000527f036b6384b5eca791c62761152d0c79bb0604c104a5fb6f4eb0703f3154bb3db001929092555050565b60036020526000908152604090208054819061071190610c58565b80601f016020809104026020016040519081016040528092919081815260200182805461073d90610c58565b801561078a5780601f1061075f5761010080835404028352916020019161078a565b820191906000526020600020905b81548152906001019060200180831161076d57829003601f168201915b5050505050908060010154905082565b600581815481106107aa57600080fd5b600091825260209091200154905081565b6006546001600160a01b0316331461080d5760405162461bcd60e51b8152602060048201526015602482015274596f752068617665206e6f20617574686f7269747960581b6044820152606401610314565b61081942612a30610ec6565b600755565b60408051808201909152606081526000602082015260008281526002602052604090205460ff166108915760405162461bcd60e51b815260206004820152601b60248201527f53657269616c206e756d62657220686173206e6f7420766f74656400000000006044820152606401610314565b60008281526003602052604090819020815180830190925280548290829061034490610c58565b60055460609060008167ffffffffffffffff8111156108d9576108d9610abf565b60405190808252806020026020018201604052801561091f57816020015b6040805180820190915260008152606060208201528152602001906001900390816108f75790505b50905060005b82811015610a275760006005828154811061094257610942610edf565b600091825260208083209091015480835260039091526040822080549193509061096b90610c58565b80601f016020809104026020016040519081016040528092919081815260200182805461099790610c58565b80156109e45780601f106109b9576101008083540402835291602001916109e4565b820191906000526020600020905b8154815290600101906020018083116109c757829003601f168201915b50505050509050604051806040016040528083815260200182815250848481518110610a1257610a12610edf565b60209081029190910101525050600101610925565b5092915050565b600060208284031215610a4057600080fd5b5035919050565b6000815180845260005b81811015610a6d57602081850181015186830182015201610a51565b506000602082860101526020601f19601f83011685010191505092915050565b602081526000825160406020840152610aa96060840182610a47565b9050602084015160408401528091505092915050565b634e487b7160e01b600052604160045260246000fd5b600060208284031215610ae757600080fd5b813567ffffffffffffffff811115610afe57600080fd5b8201601f81018413610b0f57600080fd5b803567ffffffffffffffff811115610b2957610b29610abf565b604051601f8201601f19908116603f0116810167ffffffffffffffff81118282101715610b5857610b58610abf565b604052818152828201602001861015610b7057600080fd5b81602084016020830137600091810160200191909152949350505050565b600080600060608486031215610ba357600080fd5b505081359360208301359350604090920135919050565b604081526000610bcd6040830185610a47565b90508260208301529392505050565b6000602082016020835280845180835260408501915060408160051b86010192506020860160005b82811015610c4c57603f198786030184528151805186526020810151905060406020870152610c366040870182610a47565b9550506020938401939190910190600101610c04565b50929695505050505050565b600181811c90821680610c6c57607f821691505b602082108103610c8c57634e487b7160e01b600052602260045260246000fd5b50919050565b601f821115610cdc57806000526020600020601f840160051c81016020851015610cb95750805b601f840160051c820191505b81811015610cd95760008155600101610cc5565b50505b505050565b815167ffffffffffffffff811115610cfb57610cfb610abf565b610d0f81610d098454610c58565b84610c92565b6020601f821160018114610d465760008315610d2b5750848201515b600184901b600019600386901b1c198216175b855550610cd9565b600084815260208120601f198516915b82811015610d765787850151825560209485019460019092019101610d56565b5084821015610d945786840151600019600387901b60f8161c191681555b50505050600190811b01905550565b634e487b7160e01b600052601160045260246000fd5b600060ff821660ff8103610dcf57610dcf610da3565b60010192915050565b600060018201610dea57610dea610da3565b5060010190565b818103610dfc575050565b610e068254610c58565b67ffffffffffffffff811115610e1e57610e1e610abf565b610e2c81610d098454610c58565b6000601f821160018114610e5e5760008315610d2b575081850154600184901b600019600386901b1c19821617610d3e565b600085815260209020601f19841690600086815260209020845b83811015610e985782860154825560019586019590910190602001610e78565b5085831015610eb65781850154600019600388901b60f8161c191681555b5050505050600190811b01905550565b80820180821115610ed957610ed9610da3565b92915050565b634e487b7160e01b600052603260045260246000fdfea2646970667358221220fcfb7c020c79c9a8623e1ee6936d3ad02e69c42458ac03f6c602c279119eb60d64736f6c634300081b0033",
    "linkReferences": {}
  },
  "methodIdentifiers": {
    "addCandidate(string)": "462e91ec",
    "allCandidatesadded()": "9162ba75",
    "balletPaper(bytes32,uint256,uint256)": "4c101149",
    "candidateCount()": "a9a981a3",
    "cnicVotes(uint256)": "4ea6c7fc",
    "getCandidate(uint256)": "35b8e820",
    "getResult()": "de292789",
    "getVoteRecord(bytes32)": "a9bedae4",
    "getVotingEndTime()": "b1bf87b0",
    "owner()": "8da5cb5b",
    "serialNumbers(uint256)": "81fbd329",
    "setAllCandidatesAdded()": "d242363b",
    "setVotingEndTime()": "930ab119",
    "voteRecords(bytes32)": "79916eb4",
    "votesCount(bytes32)": "aae46bab",
    "votingEndTime()": "1ea736e0"
  },
  "id": 25
}