{
  "abi": [
    {
      "type": "constructor",
      "inputs": [],
      "stateMutability": "nonpayable"
    },
    {
      "type": "function",
      "name": "addCandidate",
      "inputs": [
        {
          "name": "_name",
          "type": "string",
          "internalType": "string"
        }
      ],
      "outputs": [],
      "stateMutability": "nonpayable"
    },
    {
      "type": "function",
      "name": "balletPaper",
      "inputs": [
        {
          "name": "_serialno",
          "type": "bytes32",
          "internalType": "bytes32"
        },
        {
          "name": "_cnic",
          "type": "uint256",
          "internalType": "uint256"
        },
        {
          "name": "_i",
          "type": "uint256",
          "internalType": "uint256"
        }
      ],
      "outputs": [],
      "stateMutability": "nonpayable"
    },
    {
      "type": "function",
      "name": "candidateCount",
      "inputs": [],
      "outputs": [
        {
          "name": "",
          "type": "uint8",
          "internalType": "uint8"
        }
      ],
      "stateMutability": "view"
    },
    {
      "type": "function",
      "name": "cnicVotes",
      "inputs": [
        {
          "name": "",
          "type": "uint256",
          "internalType": "uint256"
        }
      ],
      "outputs": [
        {
          "name": "",
          "type": "bool",
          "internalType": "bool"
        }
      ],
      "stateMutability": "view"
    },
    {
      "type": "function",
      "name": "getCandidate",
      "inputs": [
        {
          "name": "_index",
          "type": "uint256",
          "internalType": "uint256"
        }
      ],
      "outputs": [
        {
          "name": "",
          "type": "tuple",
          "internalType": "struct HandleVote.CandidateDetail",
          "components": [
            {
              "name": "name",
              "type": "string",
              "internalType": "string"
            },
            {
              "name": "votesCount",
              "type": "uint256",
              "internalType": "uint256"
            }
          ]
        }
      ],
      "stateMutability": "view"
    },
    {
      "type": "function",
      "name": "getCurrentTime",
      "inputs": [],
      "outputs": [
        {
          "name": "",
          "type": "uint256",
          "internalType": "uint256"
        }
      ],
      "stateMutability": "view"
    },
    {
      "type": "function",
      "name": "getResult",
      "inputs": [],
      "outputs": [
        {
          "name": "",
          "type": "tuple[]",
          "internalType": "struct HandleVote.VoteResult[]",
          "components": [
            {
              "name": "serialNo",
              "type": "bytes32",
              "internalType": "bytes32"
            },
            {
              "name": "candidateName",
              "type": "string",
              "internalType": "string"
            }
          ]
        }
      ],
      "stateMutability": "view"
    },
    {
      "type": "function",
      "name": "getVoteRecord",
      "inputs": [
        {
          "name": "_serialno",
          "type": "bytes32",
          "internalType": "bytes32"
        }
      ],
      "outputs": [
        {
          "name": "",
          "type": "tuple",
          "internalType": "struct HandleVote.CandidateDetail",
          "components": [
            {
              "name": "name",
              "type": "string",
              "internalType": "string"
            },
            {
              "name": "votesCount",
              "type": "uint256",
              "internalType": "uint256"
            }
          ]
        }
      ],
      "stateMutability": "view"
    },
    {
      "type": "function",
      "name": "owner",
      "inputs": [],
      "outputs": [
        {
          "name": "",
          "type": "address",
          "internalType": "address"
        }
      ],
      "stateMutability": "view"
    },
    {
      "type": "function",
      "name": "serialNumbers",
      "inputs": [
        {
          "name": "",
          "type": "uint256",
          "internalType": "uint256"
        }
      ],
      "outputs": [
        {
          "name": "",
          "type": "bytes32",
          "internalType": "bytes32"
        }
      ],
      "stateMutability": "view"
    },
    {
      "type": "function",
      "name": "voteRecords",
      "inputs": [
        {
          "name": "",
          "type": "bytes32",
          "internalType": "bytes32"
        }
      ],
      "outputs": [
        {
          "name": "name",
          "type": "string",
          "internalType": "string"
        },
        {
          "name": "votesCount",
          "type": "uint256",
          "internalType": "uint256"
        }
      ],
      "stateMutability": "view"
    },
    {
      "type": "function",
      "name": "votesCount",
      "inputs": [
        {
          "name": "",
          "type": "bytes32",
          "internalType": "bytes32"
        }
      ],
      "outputs": [
        {
          "name": "",
          "type": "bool",
          "internalType": "bool"
        }
      ],
      "stateMutability": "view"
    }
  ],
  "bytecode": {
    "object": "0x6080604052348015600f57600080fd5b50600680546001600160a01b03191633179055610e20806100316000396000f3fe608060405234801561001057600080fd5b50600436106100b45760003560e01c806381fbd3291161007157806381fbd3291461016a5780638da5cb5b1461017d578063a9a981a3146101a8578063a9bedae4146101ce578063aae46bab146101e1578063de2927891461020457600080fd5b806329cb924d146100b957806335b8e820146100ce578063462e91ec146100ee5780634c101149146101035780634ea6c7fc1461011657806379916eb414610149575b600080fd5b425b6040519081526020015b60405180910390f35b6100e16100dc36600461093c565b610219565b6040516100c5919061099b565b6101016100fc3660046109e3565b610348565b005b610101610111366004610a9c565b610419565b61013961012436600461093c565b60006020819052908152604090205460ff1681565b60405190151581526020016100c5565b61015c61015736600461093c565b610667565b6040516100c5929190610ac8565b6100bb61017836600461093c565b61070b565b600654610190906001600160a01b031681565b6040516001600160a01b0390911681526020016100c5565b6006546101bc90600160a01b900460ff1681565b60405160ff90911681526020016100c5565b6100e16101dc36600461093c565b61072c565b6101396101ef36600461093c565b60026020526000908152604090205460ff1681565b61020c6107c6565b6040516100c59190610aea565b604080518082019091526060815260006020820152600654600160a01b900460ff16821061028e5760405162461bcd60e51b815260206004820152601860248201527f43616e64696461746520646f6573206e6f74206578697374000000000000000060448201526064015b60405180910390fd5b6000828152600160205260409081902081518083019092528054829082906102b590610b66565b80601f01602080910402602001604051908101604052809291908181526020018280546102e190610b66565b801561032e5780601f106103035761010080835404028352916020019161032e565b820191906000526020600020905b81548152906001019060200180831161031157829003601f168201915b505050505081526020016001820154815250509050919050565b6006546001600160a01b0316331461039a5760405162461bcd60e51b8152602060048201526015602482015274596f752068617665206e6f20617574686f7269747960581b6044820152606401610285565b60408051808201825282815260006020808301829052600654600160a01b900460ff1682526001905291909120815181906103d59082610bef565b506020919091015160019091015560068054600160a01b900460ff169060146103fd83610cc7565b91906101000a81548160ff021916908360ff1602179055505050565b3360009081526004602052604090205460ff16156104795760405162461bcd60e51b815260206004820152601760248201527f596f75206861766520616c726561647920766f7465642e0000000000000000006044820152606401610285565b60008381526002602052604090205460ff16156104d85760405162461bcd60e51b815260206004820152601a60248201527f53657269616c206e756d62657220616c726561647920757365640000000000006044820152606401610285565b600081815260016020526040812080546104f190610b66565b9050116105405760405162461bcd60e51b815260206004820152601760248201527f496e76616c69642063616e64696461746520696e6465780000000000000000006044820152606401610285565b60008281526020819052604090205460ff161561059f5760405162461bcd60e51b815260206004820152601f60248201527f434e494320697320616c72656164792070726573656e742c20736f7272792e006044820152606401610285565b3360009081526004602090815260408083208054600160ff199182168117909255868552848452828520805482168317905587855260028452828520805490911682179055848452918290528220018054916105fa83610ce6565b909155505060008181526001602090815260408083208684526003909252909120806106268382610cff565b50600191820154908201556005805491820181556000527f036b6384b5eca791c62761152d0c79bb0604c104a5fb6f4eb0703f3154bb3db001929092555050565b60036020526000908152604090208054819061068290610b66565b80601f01602080910402602001604051908101604052809291908181526020018280546106ae90610b66565b80156106fb5780601f106106d0576101008083540402835291602001916106fb565b820191906000526020600020905b8154815290600101906020018083116106de57829003601f168201915b5050505050908060010154905082565b6005818154811061071b57600080fd5b600091825260209091200154905081565b60408051808201909152606081526000602082015260008281526002602052604090205460ff1661079f5760405162461bcd60e51b815260206004820152601b60248201527f53657269616c206e756d62657220686173206e6f7420766f74656400000000006044820152606401610285565b6000828152600360205260409081902081518083019092528054829082906102b590610b66565b60055460609060008167ffffffffffffffff8111156107e7576107e76109cd565b60405190808252806020026020018201604052801561082d57816020015b6040805180820190915260008152606060208201528152602001906001900390816108055790505b50905060005b828110156109355760006005828154811061085057610850610dd4565b600091825260208083209091015480835260039091526040822080549193509061087990610b66565b80601f01602080910402602001604051908101604052809291908181526020018280546108a590610b66565b80156108f25780601f106108c7576101008083540402835291602001916108f2565b820191906000526020600020905b8154815290600101906020018083116108d557829003601f168201915b5050505050905060405180604001604052808381526020018281525084848151811061092057610920610dd4565b60209081029190910101525050600101610833565b5092915050565b60006020828403121561094e57600080fd5b5035919050565b6000815180845260005b8181101561097b5760208185018101518683018201520161095f565b506000602082860101526020601f19601f83011685010191505092915050565b6020815260008251604060208401526109b76060840182610955565b9050602084015160408401528091505092915050565b634e487b7160e01b600052604160045260246000fd5b6000602082840312156109f557600080fd5b813567ffffffffffffffff811115610a0c57600080fd5b8201601f81018413610a1d57600080fd5b803567ffffffffffffffff811115610a3757610a376109cd565b604051601f8201601f19908116603f0116810167ffffffffffffffff81118282101715610a6657610a666109cd565b604052818152828201602001861015610a7e57600080fd5b81602084016020830137600091810160200191909152949350505050565b600080600060608486031215610ab157600080fd5b505081359360208301359350604090920135919050565b604081526000610adb6040830185610955565b90508260208301529392505050565b6000602082016020835280845180835260408501915060408160051b86010192506020860160005b82811015610b5a57603f198786030184528151805186526020810151905060406020870152610b446040870182610955565b9550506020938401939190910190600101610b12565b50929695505050505050565b600181811c90821680610b7a57607f821691505b602082108103610b9a57634e487b7160e01b600052602260045260246000fd5b50919050565b601f821115610bea57806000526020600020601f840160051c81016020851015610bc75750805b601f840160051c820191505b81811015610be75760008155600101610bd3565b50505b505050565b815167ffffffffffffffff811115610c0957610c096109cd565b610c1d81610c178454610b66565b84610ba0565b6020601f821160018114610c545760008315610c395750848201515b600184901b600019600386901b1c198216175b855550610be7565b600084815260208120601f198516915b82811015610c845787850151825560209485019460019092019101610c64565b5084821015610ca25786840151600019600387901b60f8161c191681555b50505050600190811b01905550565b634e487b7160e01b600052601160045260246000fd5b600060ff821660ff8103610cdd57610cdd610cb1565b60010192915050565b600060018201610cf857610cf8610cb1565b5060010190565b818103610d0a575050565b610d148254610b66565b67ffffffffffffffff811115610d2c57610d2c6109cd565b610d3a81610c178454610b66565b6000601f821160018114610d6c5760008315610c39575081850154600184901b600019600386901b1c19821617610c4c565b600085815260209020601f19841690600086815260209020845b83811015610da65782860154825560019586019590910190602001610d86565b5085831015610dc45781850154600019600388901b60f8161c191681555b5050505050600190811b01905550565b634e487b7160e01b600052603260045260246000fdfea264697066735822122067cd3e7a415194da9ca5116fde201012d64e43858fefa58602feeb581294072864736f6c634300081b0033",
    "linkReferences": {}
  },
  "methodIdentifiers": {
    "addCandidate(string)": "462e91ec",
    "balletPaper(bytes32,uint256,uint256)": "4c101149",
    "candidateCount()": "a9a981a3",
    "cnicVotes(uint256)": "4ea6c7fc",
    "getCandidate(uint256)": "35b8e820",
    "getCurrentTime()": "29cb924d",
    "getResult()": "de292789",
    "getVoteRecord(bytes32)": "a9bedae4",
    "owner()": "8da5cb5b",
    "serialNumbers(uint256)": "81fbd329",
    "voteRecords(bytes32)": "79916eb4",
    "votesCount(bytes32)": "aae46bab"
  },
  "id": 23
}